{
  "_format": "hh-sol-artifact-1",
  "contractName": "DBeatsFactory",
  "sourceName": "contracts/Factory.sol",
  "abi": [
    {
      "inputs": [
        {
          "internalType": "address",
          "name": "_platformWalletAddress",
          "type": "address"
        },
        {
          "internalType": "address",
          "name": "_feeManagerAddress",
          "type": "address"
        }
      ],
      "stateMutability": "nonpayable",
      "type": "constructor"
    },
    {
      "inputs": [],
      "name": "Factory__ArtistAlreadyAdded",
      "type": "error"
    },
    {
      "inputs": [],
      "name": "Factory__CallerNotAdmin",
      "type": "error"
    },
    {
      "inputs": [],
      "name": "Factory__CallerNotArtist",
      "type": "error"
    },
    {
      "anonymous": false,
      "inputs": [
        {
          "indexed": true,
          "internalType": "address",
          "name": "nftAddress",
          "type": "address"
        },
        {
          "indexed": false,
          "internalType": "address",
          "name": "_artistAddress",
          "type": "address"
        },
        {
          "indexed": false,
          "internalType": "string",
          "name": "_newTokenURI",
          "type": "string"
        },
        {
          "indexed": false,
          "internalType": "string",
          "name": "name",
          "type": "string"
        },
        {
          "indexed": false,
          "internalType": "string",
          "name": "symbol",
          "type": "string"
        },
        {
          "indexed": false,
          "internalType": "uint256",
          "name": "mintPrice",
          "type": "uint256"
        },
        {
          "indexed": false,
          "internalType": "string",
          "name": "_genre",
          "type": "string"
        },
        {
          "indexed": false,
          "internalType": "uint256",
          "name": "maxMintLimit",
          "type": "uint256"
        }
      ],
      "name": "NewNFT",
      "type": "event"
    },
    {
      "anonymous": false,
      "inputs": [
        {
          "indexed": true,
          "internalType": "address",
          "name": "previousOwner",
          "type": "address"
        },
        {
          "indexed": true,
          "internalType": "address",
          "name": "newOwner",
          "type": "address"
        }
      ],
      "name": "OwnershipTransferred",
      "type": "event"
    },
    {
      "anonymous": false,
      "inputs": [
        {
          "indexed": true,
          "internalType": "bytes32",
          "name": "role",
          "type": "bytes32"
        },
        {
          "indexed": true,
          "internalType": "bytes32",
          "name": "previousAdminRole",
          "type": "bytes32"
        },
        {
          "indexed": true,
          "internalType": "bytes32",
          "name": "newAdminRole",
          "type": "bytes32"
        }
      ],
      "name": "RoleAdminChanged",
      "type": "event"
    },
    {
      "anonymous": false,
      "inputs": [
        {
          "indexed": true,
          "internalType": "bytes32",
          "name": "role",
          "type": "bytes32"
        },
        {
          "indexed": true,
          "internalType": "address",
          "name": "account",
          "type": "address"
        },
        {
          "indexed": true,
          "internalType": "address",
          "name": "sender",
          "type": "address"
        }
      ],
      "name": "RoleGranted",
      "type": "event"
    },
    {
      "anonymous": false,
      "inputs": [
        {
          "indexed": true,
          "internalType": "bytes32",
          "name": "role",
          "type": "bytes32"
        },
        {
          "indexed": true,
          "internalType": "address",
          "name": "account",
          "type": "address"
        },
        {
          "indexed": true,
          "internalType": "address",
          "name": "sender",
          "type": "address"
        }
      ],
      "name": "RoleRevoked",
      "type": "event"
    },
    {
      "inputs": [],
      "name": "ADMIN_ROLE",
      "outputs": [
        {
          "internalType": "bytes32",
          "name": "",
          "type": "bytes32"
        }
      ],
      "stateMutability": "view",
      "type": "function"
    },
    {
      "inputs": [],
      "name": "ARTIST_ROLE",
      "outputs": [
        {
          "internalType": "bytes32",
          "name": "",
          "type": "bytes32"
        }
      ],
      "stateMutability": "view",
      "type": "function"
    },
    {
      "inputs": [],
      "name": "DEFAULT_ADMIN_ROLE",
      "outputs": [
        {
          "internalType": "bytes32",
          "name": "",
          "type": "bytes32"
        }
      ],
      "stateMutability": "view",
      "type": "function"
    },
    {
      "inputs": [
        {
          "internalType": "address",
          "name": "account",
          "type": "address"
        }
      ],
      "name": "addAdmin",
      "outputs": [],
      "stateMutability": "nonpayable",
      "type": "function"
    },
    {
      "inputs": [
        {
          "internalType": "address",
          "name": "account",
          "type": "address"
        }
      ],
      "name": "addArtist",
      "outputs": [],
      "stateMutability": "nonpayable",
      "type": "function"
    },
    {
      "inputs": [
        {
          "internalType": "bytes32",
          "name": "role",
          "type": "bytes32"
        },
        {
          "internalType": "address",
          "name": "account",
          "type": "address"
        }
      ],
      "name": "addUserToRole",
      "outputs": [],
      "stateMutability": "nonpayable",
      "type": "function"
    },
    {
      "inputs": [
        {
          "internalType": "address",
          "name": "_artistAddress",
          "type": "address"
        },
        {
          "internalType": "string",
          "name": "_newTokenURI",
          "type": "string"
        },
        {
          "internalType": "string",
          "name": "name",
          "type": "string"
        },
        {
          "internalType": "string",
          "name": "symbol",
          "type": "string"
        },
        {
          "internalType": "uint256",
          "name": "mintPrice",
          "type": "uint256"
        },
        {
          "internalType": "string",
          "name": "_genre",
          "type": "string"
        },
        {
          "internalType": "uint256",
          "name": "maxMintLimit",
          "type": "uint256"
        }
      ],
      "name": "createNFT",
      "outputs": [],
      "stateMutability": "nonpayable",
      "type": "function"
    },
    {
      "inputs": [
        {
          "internalType": "address",
          "name": "creator",
          "type": "address"
        }
      ],
      "name": "getNFTsByCreator",
      "outputs": [
        {
          "internalType": "address[]",
          "name": "",
          "type": "address[]"
        }
      ],
      "stateMutability": "view",
      "type": "function"
    },
    {
      "inputs": [],
      "name": "getPlatformFeePercentage",
      "outputs": [
        {
          "internalType": "uint256",
          "name": "",
          "type": "uint256"
        }
      ],
      "stateMutability": "view",
      "type": "function"
    },
    {
      "inputs": [
        {
          "internalType": "bytes32",
          "name": "role",
          "type": "bytes32"
        }
      ],
      "name": "getRoleAdmin",
      "outputs": [
        {
          "internalType": "bytes32",
          "name": "",
          "type": "bytes32"
        }
      ],
      "stateMutability": "view",
      "type": "function"
    },
    {
      "inputs": [],
      "name": "getTokenCount",
      "outputs": [
        {
          "internalType": "uint256",
          "name": "",
          "type": "uint256"
        }
      ],
      "stateMutability": "view",
      "type": "function"
    },
    {
      "inputs": [
        {
          "internalType": "bytes32",
          "name": "role",
          "type": "bytes32"
        },
        {
          "internalType": "address",
          "name": "account",
          "type": "address"
        }
      ],
      "name": "grantRole",
      "outputs": [],
      "stateMutability": "nonpayable",
      "type": "function"
    },
    {
      "inputs": [
        {
          "internalType": "bytes32",
          "name": "role",
          "type": "bytes32"
        },
        {
          "internalType": "address",
          "name": "account",
          "type": "address"
        }
      ],
      "name": "hasRole",
      "outputs": [
        {
          "internalType": "bool",
          "name": "",
          "type": "bool"
        }
      ],
      "stateMutability": "view",
      "type": "function"
    },
    {
      "inputs": [
        {
          "internalType": "address",
          "name": "",
          "type": "address"
        },
        {
          "internalType": "uint256",
          "name": "",
          "type": "uint256"
        }
      ],
      "name": "nftsByCreator",
      "outputs": [
        {
          "internalType": "address",
          "name": "",
          "type": "address"
        }
      ],
      "stateMutability": "view",
      "type": "function"
    },
    {
      "inputs": [],
      "name": "owner",
      "outputs": [
        {
          "internalType": "address",
          "name": "",
          "type": "address"
        }
      ],
      "stateMutability": "view",
      "type": "function"
    },
    {
      "inputs": [],
      "name": "platformWalletAddress",
      "outputs": [
        {
          "internalType": "address",
          "name": "",
          "type": "address"
        }
      ],
      "stateMutability": "view",
      "type": "function"
    },
    {
      "inputs": [],
      "name": "renounceOwnership",
      "outputs": [],
      "stateMutability": "nonpayable",
      "type": "function"
    },
    {
      "inputs": [
        {
          "internalType": "bytes32",
          "name": "role",
          "type": "bytes32"
        },
        {
          "internalType": "address",
          "name": "account",
          "type": "address"
        }
      ],
      "name": "renounceRole",
      "outputs": [],
      "stateMutability": "nonpayable",
      "type": "function"
    },
    {
      "inputs": [
        {
          "internalType": "bytes32",
          "name": "role",
          "type": "bytes32"
        },
        {
          "internalType": "address",
          "name": "account",
          "type": "address"
        }
      ],
      "name": "revokeRole",
      "outputs": [],
      "stateMutability": "nonpayable",
      "type": "function"
    },
    {
      "inputs": [
        {
          "internalType": "bytes4",
          "name": "interfaceId",
          "type": "bytes4"
        }
      ],
      "name": "supportsInterface",
      "outputs": [
        {
          "internalType": "bool",
          "name": "",
          "type": "bool"
        }
      ],
      "stateMutability": "view",
      "type": "function"
    },
    {
      "inputs": [
        {
          "internalType": "address",
          "name": "newOwner",
          "type": "address"
        }
      ],
      "name": "transferOwnership",
      "outputs": [],
      "stateMutability": "nonpayable",
      "type": "function"
    }
  ],
  "bytecode": "0x60a06040523480156200001157600080fd5b506040516200604e3803806200604e8339818101604052810190620000379190620003ad565b620000576200004b6200011b60201b60201c565b6200012360201b60201c565b6200006c6000801b33620001e760201b60201c565b6200009e7fa49807205ce4d355092ef5a8a18f56e8913cf4a201fbe287825b095693c2177533620001e760201b60201c565b81600360006101000a81548173ffffffffffffffffffffffffffffffffffffffff021916908373ffffffffffffffffffffffffffffffffffffffff1602179055508073ffffffffffffffffffffffffffffffffffffffff1660808173ffffffffffffffffffffffffffffffffffffffff16815250505050620003f4565b600033905090565b60008060009054906101000a900473ffffffffffffffffffffffffffffffffffffffff169050816000806101000a81548173ffffffffffffffffffffffffffffffffffffffff021916908373ffffffffffffffffffffffffffffffffffffffff1602179055508173ffffffffffffffffffffffffffffffffffffffff168173ffffffffffffffffffffffffffffffffffffffff167f8be0079c531659141344cd1fd0a4f28419497f9722a3daafe3b4186f6b6457e060405160405180910390a35050565b620001f98282620002d860201b60201c565b620002d457600180600084815260200190815260200160002060000160008373ffffffffffffffffffffffffffffffffffffffff1673ffffffffffffffffffffffffffffffffffffffff16815260200190815260200160002060006101000a81548160ff021916908315150217905550620002796200011b60201b60201c565b73ffffffffffffffffffffffffffffffffffffffff168173ffffffffffffffffffffffffffffffffffffffff16837f2f8788117e7eff1d82e926ec794901d17c78024a50270940304540a733656f0d60405160405180910390a45b5050565b60006001600084815260200190815260200160002060000160008373ffffffffffffffffffffffffffffffffffffffff1673ffffffffffffffffffffffffffffffffffffffff16815260200190815260200160002060009054906101000a900460ff16905092915050565b600080fd5b600073ffffffffffffffffffffffffffffffffffffffff82169050919050565b6000620003758262000348565b9050919050565b620003878162000368565b81146200039357600080fd5b50565b600081519050620003a7816200037c565b92915050565b60008060408385031215620003c757620003c662000343565b5b6000620003d78582860162000396565b9250506020620003ea8582860162000396565b9150509250929050565b608051615c37620004176000396000818161078a0152610af60152615c376000f3fe60806040523480156200001157600080fd5b5060043610620001545760003560e01c8063818d7f7b11620000c9578063a966a0df1162000087578063a966a0df1462000373578063ab1df3d91462000395578063c263bdaa14620003b5578063d547741f14620003eb578063f2fde38b146200040b578063ffa03821146200042b5762000154565b8063818d7f7b14620002b75780638da5cb5b14620002d757806391d1485414620002f95780639f2a6374146200032f578063a217fddf14620003515762000154565b8063704802751162000117578063704802751462000225578063715018a6146200024557806375b238fc146200025157806378a8956714620002735780637a3a27ea14620002955762000154565b806301ffc9a71462000159578063248a9ca3146200018f5780632f2ff15d14620001c557806336568abe14620001e55780634d287f2b1462000205575b600080fd5b62000177600480360381019062000171919062001587565b62000461565b604051620001869190620015d6565b60405180910390f35b620001ad6004803603810190620001a791906200162e565b620004de565b604051620001bc919062001671565b60405180910390f35b620001e36004803603810190620001dd9190620016f3565b620004fe565b005b620002036004803603810190620001fd9190620016f3565b62000525565b005b6200022360048036038101906200021d91906200173a565b620005af565b005b6200024360048036038101906200023d91906200173a565b620006a5565b005b6200024f62000737565b005b6200025b6200074f565b6040516200026a919062001671565b60405180910390f35b6200027d62000773565b6040516200028c919062001787565b60405180910390f35b6200029f62000786565b604051620002ae919062001787565b60405180910390f35b620002d56004803603810190620002cf9190620016f3565b6200081f565b005b620002e162000839565b604051620002f09190620017b5565b60405180910390f35b620003176004803603810190620003119190620016f3565b62000862565b604051620003269190620015d6565b60405180910390f35b62000339620008cd565b604051620003489190620017b5565b60405180910390f35b6200035b620008f3565b6040516200036a919062001671565b60405180910390f35b6200037d620008fa565b6040516200038c919062001671565b60405180910390f35b620003b36004803603810190620003ad919062001871565b6200091e565b005b620003d36004803603810190620003cd9190620019b2565b62000c66565b604051620003e29190620017b5565b60405180910390f35b620004096004803603810190620004039190620016f3565b62000cb5565b005b6200042960048036038101906200042391906200173a565b62000cdc565b005b6200044960048036038101906200044391906200173a565b62000d66565b60405162000458919062001ac7565b60405180910390f35b60007f7965db0b000000000000000000000000000000000000000000000000000000007bffffffffffffffffffffffffffffffffffffffffffffffffffffffff1916827bffffffffffffffffffffffffffffffffffffffffffffffffffffffff19161480620004d75750620004d68262000e35565b5b9050919050565b600060016000838152602001908152602001600020600101549050919050565b6200050982620004de565b620005148162000e9f565b62000520838362000eb7565b505050565b6200052f62000f9c565b73ffffffffffffffffffffffffffffffffffffffff168173ffffffffffffffffffffffffffffffffffffffff16146200059f576040517f08c379a0000000000000000000000000000000000000000000000000000000008152600401620005969062001b72565b60405180910390fd5b620005ab828262000fa4565b5050565b620005db7fa49807205ce4d355092ef5a8a18f56e8913cf4a201fbe287825b095693c217753362000862565b62000612576040517f1f437f4f00000000000000000000000000000000000000000000000000000000815260040160405180910390fd5b6200063e7f877a78dc988c0ec5f58453b44888a55eb39755c3d5ed8d8ea990912aa3ef29c68262000862565b1562000676576040517f0718f88900000000000000000000000000000000000000000000000000000000815260040160405180910390fd5b620006a27f877a78dc988c0ec5f58453b44888a55eb39755c3d5ed8d8ea990912aa3ef29c682620004fe565b50565b620006d17fa49807205ce4d355092ef5a8a18f56e8913cf4a201fbe287825b095693c217753362000862565b62000708576040517f1f437f4f00000000000000000000000000000000000000000000000000000000815260040160405180910390fd5b620007347fa49807205ce4d355092ef5a8a18f56e8913cf4a201fbe287825b095693c2177582620004fe565b50565b620007416200108b565b6200074d600062001110565b565b7fa49807205ce4d355092ef5a8a18f56e8913cf4a201fbe287825b095693c2177581565b6000620007816002620011d4565b905090565b60007f000000000000000000000000000000000000000000000000000000000000000073ffffffffffffffffffffffffffffffffffffffff16637a3a27ea6040518163ffffffff1660e01b8152600401602060405180830381865afa158015620007f4573d6000803e3d6000fd5b505050506040513d601f19601f820116820180604052508101906200081a919062001bab565b905090565b620008296200108b565b620008358282620004fe565b5050565b60008060009054906101000a900473ffffffffffffffffffffffffffffffffffffffff16905090565b60006001600084815260200190815260200160002060000160008373ffffffffffffffffffffffffffffffffffffffff1673ffffffffffffffffffffffffffffffffffffffff16815260200190815260200160002060009054906101000a900460ff16905092915050565b600360009054906101000a900473ffffffffffffffffffffffffffffffffffffffff1681565b6000801b81565b7f877a78dc988c0ec5f58453b44888a55eb39755c3d5ed8d8ea990912aa3ef29c681565b6200094a7f877a78dc988c0ec5f58453b44888a55eb39755c3d5ed8d8ea990912aa3ef29c63362000862565b62000981576040517f140870e400000000000000000000000000000000000000000000000000000000815260040160405180910390fd5b6200098d6002620011e2565b60006040518060c001604052808c8c8080601f016020809104026020016040519081016040528093929190818152602001838380828437600081840152601f19601f8201169050808301925050505050505081526020018a8a8080601f016020809104026020016040519081016040528093929190818152602001838380828437600081840152601f19601f82011690508083019250505050505050815260200188888080601f016020809104026020016040519081016040528093929190818152602001838380828437600081840152601f19601f82011690508083019250505050505050815260200185858080601f016020809104026020016040519081016040528093929190818152602001838380828437600081840152601f19601f82011690508083019250505050505050815260200186815260200183815250905060008c600360009054906101000a900473ffffffffffffffffffffffffffffffffffffffff167f00000000000000000000000000000000000000000000000000000000000000008460405162000b249062001512565b62000b33949392919062001d32565b604051809103906000f08015801562000b50573d6000803e3d6000fd5b5090508073ffffffffffffffffffffffffffffffffffffffff167faa3ffb8c11222ff8790a42d4c7cdaaed837432610dce5d9d6845895fe7857fe28e8e8e8e8e8e8e8e8e8e8e60405162000baf9b9a9998979695949392919062001dc8565b60405180910390a2600460008e73ffffffffffffffffffffffffffffffffffffffff1673ffffffffffffffffffffffffffffffffffffffff168152602001908152602001600020819080600181540180825580915050600190039060005260206000200160009091909190916101000a81548173ffffffffffffffffffffffffffffffffffffffff021916908373ffffffffffffffffffffffffffffffffffffffff16021790555050505050505050505050505050565b6004602052816000526040600020818154811062000c8357600080fd5b906000526020600020016000915091509054906101000a900473ffffffffffffffffffffffffffffffffffffffff1681565b62000cc082620004de565b62000ccb8162000e9f565b62000cd7838362000fa4565b505050565b62000ce66200108b565b600073ffffffffffffffffffffffffffffffffffffffff168173ffffffffffffffffffffffffffffffffffffffff160362000d58576040517f08c379a000000000000000000000000000000000000000000000000000000000815260040162000d4f9062001edf565b60405180910390fd5b62000d638162001110565b50565b6060600460008373ffffffffffffffffffffffffffffffffffffffff1673ffffffffffffffffffffffffffffffffffffffff16815260200190815260200160002080548060200260200160405190810160405280929190818152602001828054801562000e2957602002820191906000526020600020905b8160009054906101000a900473ffffffffffffffffffffffffffffffffffffffff1673ffffffffffffffffffffffffffffffffffffffff168152602001906001019080831162000dde575b50505050509050919050565b60007f01ffc9a7000000000000000000000000000000000000000000000000000000007bffffffffffffffffffffffffffffffffffffffffffffffffffffffff1916827bffffffffffffffffffffffffffffffffffffffffffffffffffffffff1916149050919050565b62000eb48162000eae62000f9c565b620011f8565b50565b62000ec3828262000862565b62000f9857600180600084815260200190815260200160002060000160008373ffffffffffffffffffffffffffffffffffffffff1673ffffffffffffffffffffffffffffffffffffffff16815260200190815260200160002060006101000a81548160ff02191690831515021790555062000f3d62000f9c565b73ffffffffffffffffffffffffffffffffffffffff168173ffffffffffffffffffffffffffffffffffffffff16837f2f8788117e7eff1d82e926ec794901d17c78024a50270940304540a733656f0d60405160405180910390a45b5050565b600033905090565b62000fb0828262000862565b15620010875760006001600084815260200190815260200160002060000160008373ffffffffffffffffffffffffffffffffffffffff1673ffffffffffffffffffffffffffffffffffffffff16815260200190815260200160002060006101000a81548160ff0219169083151502179055506200102c62000f9c565b73ffffffffffffffffffffffffffffffffffffffff168173ffffffffffffffffffffffffffffffffffffffff16837ff6391f5c32d9c69d2a47ea670b442974b53935d1edc7fd64eb21e047a839171b60405160405180910390a45b5050565b6200109562000f9c565b73ffffffffffffffffffffffffffffffffffffffff16620010b562000839565b73ffffffffffffffffffffffffffffffffffffffff16146200110e576040517f08c379a0000000000000000000000000000000000000000000000000000000008152600401620011059062001f51565b60405180910390fd5b565b60008060009054906101000a900473ffffffffffffffffffffffffffffffffffffffff169050816000806101000a81548173ffffffffffffffffffffffffffffffffffffffff021916908373ffffffffffffffffffffffffffffffffffffffff1602179055508173ffffffffffffffffffffffffffffffffffffffff168173ffffffffffffffffffffffffffffffffffffffff167f8be0079c531659141344cd1fd0a4f28419497f9722a3daafe3b4186f6b6457e060405160405180910390a35050565b600081600001549050919050565b6001816000016000828254019250508190555050565b62001204828262000862565b6200128457620012148162001288565b620012248360001c6020620012b7565b6040516020016200123792919062002055565b6040516020818303038152906040526040517f08c379a00000000000000000000000000000000000000000000000000000000081526004016200127b9190620020d8565b60405180910390fd5b5050565b6060620012b08273ffffffffffffffffffffffffffffffffffffffff16601460ff16620012b7565b9050919050565b606060006002836002620012cc91906200212b565b620012d8919062002176565b67ffffffffffffffff811115620012f457620012f3620021b1565b5b6040519080825280601f01601f191660200182016040528015620013275781602001600182028036833780820191505090505b5090507f300000000000000000000000000000000000000000000000000000000000000081600081518110620013625762001361620021e0565b5b60200101907effffffffffffffffffffffffffffffffffffffffffffffffffffffffffffff1916908160001a9053507f780000000000000000000000000000000000000000000000000000000000000081600181518110620013c957620013c8620021e0565b5b60200101907effffffffffffffffffffffffffffffffffffffffffffffffffffffffffffff1916908160001a905350600060018460026200140b91906200212b565b62001417919062002176565b90505b6001811115620014c1577f3031323334353637383961626364656600000000000000000000000000000000600f8616601081106200145d576200145c620021e0565b5b1a60f81b828281518110620014775762001476620021e0565b5b60200101907effffffffffffffffffffffffffffffffffffffffffffffffffffffffffffff1916908160001a905350600485901c945080620014b9906200220f565b90506200141a565b506000841462001508576040517f08c379a0000000000000000000000000000000000000000000000000000000008152600401620014ff906200228d565b60405180910390fd5b8091505092915050565b61395280620022b083390190565b600080fd5b600080fd5b60007fffffffff0000000000000000000000000000000000000000000000000000000082169050919050565b62001561816200152a565b81146200156d57600080fd5b50565b600081359050620015818162001556565b92915050565b600060208284031215620015a0576200159f62001520565b5b6000620015b08482850162001570565b91505092915050565b60008115159050919050565b620015d081620015b9565b82525050565b6000602082019050620015ed6000830184620015c5565b92915050565b6000819050919050565b6200160881620015f3565b81146200161457600080fd5b50565b6000813590506200162881620015fd565b92915050565b60006020828403121562001647576200164662001520565b5b6000620016578482850162001617565b91505092915050565b6200166b81620015f3565b82525050565b600060208201905062001688600083018462001660565b92915050565b600073ffffffffffffffffffffffffffffffffffffffff82169050919050565b6000620016bb826200168e565b9050919050565b620016cd81620016ae565b8114620016d957600080fd5b50565b600081359050620016ed81620016c2565b92915050565b600080604083850312156200170d576200170c62001520565b5b60006200171d8582860162001617565b92505060206200173085828601620016dc565b9150509250929050565b60006020828403121562001753576200175262001520565b5b60006200176384828501620016dc565b91505092915050565b6000819050919050565b62001781816200176c565b82525050565b60006020820190506200179e600083018462001776565b92915050565b620017af81620016ae565b82525050565b6000602082019050620017cc6000830184620017a4565b92915050565b600080fd5b600080fd5b600080fd5b60008083601f840112620017fa57620017f9620017d2565b5b8235905067ffffffffffffffff8111156200181a5762001819620017d7565b5b602083019150836001820283011115620018395762001838620017dc565b5b9250929050565b6200184b816200176c565b81146200185757600080fd5b50565b6000813590506200186b8162001840565b92915050565b600080600080600080600080600080600060e08c8e03121562001899576200189862001520565b5b6000620018a98e828f01620016dc565b9b505060208c013567ffffffffffffffff811115620018cd57620018cc62001525565b5b620018db8e828f01620017e1565b9a509a505060408c013567ffffffffffffffff81111562001901576200190062001525565b5b6200190f8e828f01620017e1565b985098505060608c013567ffffffffffffffff81111562001935576200193462001525565b5b620019438e828f01620017e1565b96509650506080620019588e828f016200185a565b94505060a08c013567ffffffffffffffff8111156200197c576200197b62001525565b5b6200198a8e828f01620017e1565b935093505060c06200199f8e828f016200185a565b9150509295989b509295989b9093969950565b60008060408385031215620019cc57620019cb62001520565b5b6000620019dc85828601620016dc565b9250506020620019ef858286016200185a565b9150509250929050565b600081519050919050565b600082825260208201905092915050565b6000819050602082019050919050565b62001a3081620016ae565b82525050565b600062001a44838362001a25565b60208301905092915050565b6000602082019050919050565b600062001a6a82620019f9565b62001a76818562001a04565b935062001a838362001a15565b8060005b8381101562001aba57815162001a9e888262001a36565b975062001aab8362001a50565b92505060018101905062001a87565b5085935050505092915050565b6000602082019050818103600083015262001ae3818462001a5d565b905092915050565b600082825260208201905092915050565b7f416363657373436f6e74726f6c3a2063616e206f6e6c792072656e6f756e636560008201527f20726f6c657320666f722073656c660000000000000000000000000000000000602082015250565b600062001b5a602f8362001aeb565b915062001b678262001afc565b604082019050919050565b6000602082019050818103600083015262001b8d8162001b4b565b9050919050565b60008151905062001ba58162001840565b92915050565b60006020828403121562001bc45762001bc362001520565b5b600062001bd48482850162001b94565b91505092915050565b600081519050919050565b600082825260208201905092915050565b60005b8381101562001c1957808201518184015260208101905062001bfc565b60008484015250505050565b6000601f19601f8301169050919050565b600062001c438262001bdd565b62001c4f818562001be8565b935062001c6181856020860162001bf9565b62001c6c8162001c25565b840191505092915050565b62001c82816200176c565b82525050565b600060c083016000830151848203600086015262001ca7828262001c36565b9150506020830151848203602086015262001cc3828262001c36565b9150506040830151848203604086015262001cdf828262001c36565b9150506060830151848203606086015262001cfb828262001c36565b915050608083015162001d12608086018262001c77565b5060a083015162001d2760a086018262001c77565b508091505092915050565b600060808201905062001d496000830187620017a4565b62001d586020830186620017a4565b62001d676040830185620017a4565b818103606083015262001d7b818462001c88565b905095945050505050565b82818337600083830152505050565b600062001da3838562001aeb565b935062001db283858462001d86565b62001dbd8362001c25565b840190509392505050565b600060e08201905062001ddf600083018e620017a4565b818103602083015262001df4818c8e62001d95565b9050818103604083015262001e0b818a8c62001d95565b9050818103606083015262001e2281888a62001d95565b905062001e33608083018762001776565b81810360a083015262001e4881858762001d95565b905062001e5960c083018462001776565b9c9b505050505050505050505050565b7f4f776e61626c653a206e6577206f776e657220697320746865207a65726f206160008201527f6464726573730000000000000000000000000000000000000000000000000000602082015250565b600062001ec760268362001aeb565b915062001ed48262001e69565b604082019050919050565b6000602082019050818103600083015262001efa8162001eb8565b9050919050565b7f4f776e61626c653a2063616c6c6572206973206e6f7420746865206f776e6572600082015250565b600062001f3960208362001aeb565b915062001f468262001f01565b602082019050919050565b6000602082019050818103600083015262001f6c8162001f2a565b9050919050565b600081905092915050565b7f416363657373436f6e74726f6c3a206163636f756e7420000000000000000000600082015250565b600062001fb660178362001f73565b915062001fc38262001f7e565b601782019050919050565b600062001fdb8262001bdd565b62001fe7818562001f73565b935062001ff981856020860162001bf9565b80840191505092915050565b7f206973206d697373696e6720726f6c6520000000000000000000000000000000600082015250565b60006200203d60118362001f73565b91506200204a8262002005565b601182019050919050565b6000620020628262001fa7565b915062002070828562001fce565b91506200207d826200202e565b91506200208b828462001fce565b91508190509392505050565b6000620020a48262001bdd565b620020b0818562001aeb565b9350620020c281856020860162001bf9565b620020cd8162001c25565b840191505092915050565b60006020820190508181036000830152620020f4818462002097565b905092915050565b7f4e487b7100000000000000000000000000000000000000000000000000000000600052601160045260246000fd5b600062002138826200176c565b915062002145836200176c565b925082820262002155816200176c565b915082820484148315176200216f576200216e620020fc565b5b5092915050565b600062002183826200176c565b915062002190836200176c565b9250828201905080821115620021ab57620021aa620020fc565b5b92915050565b7f4e487b7100000000000000000000000000000000000000000000000000000000600052604160045260246000fd5b7f4e487b7100000000000000000000000000000000000000000000000000000000600052603260045260246000fd5b60006200221c826200176c565b915060008203620022325762002231620020fc565b5b600182039050919050565b7f537472696e67733a20686578206c656e67746820696e73756666696369656e74600082015250565b60006200227560208362001aeb565b915062002282826200223d565b602082019050919050565b60006020820190508181036000830152620022a88162002266565b905091905056fe6101006040523480156200001257600080fd5b5060405162003952380380620039528339818101604052810190620000389190620005b1565b80602001518160400151816000908162000053919062000883565b50806001908162000065919062000883565b505050620000886200007c6200017960201b60201c565b6200018160201b60201c565b60016008819055508060000151600a9081620000a5919062000883565b508373ffffffffffffffffffffffffffffffffffffffff1660a08173ffffffffffffffffffffffffffffffffffffffff16815250508060800151608081815250508273ffffffffffffffffffffffffffffffffffffffff1660c08173ffffffffffffffffffffffffffffffffffffffff16815250508060600151600b90816200012f919062000883565b508173ffffffffffffffffffffffffffffffffffffffff1660e08173ffffffffffffffffffffffffffffffffffffffff16815250508060a00151600c81905550505050506200096a565b600033905090565b6000600760009054906101000a900473ffffffffffffffffffffffffffffffffffffffff16905081600760006101000a81548173ffffffffffffffffffffffffffffffffffffffff021916908373ffffffffffffffffffffffffffffffffffffffff1602179055508173ffffffffffffffffffffffffffffffffffffffff168173ffffffffffffffffffffffffffffffffffffffff167f8be0079c531659141344cd1fd0a4f28419497f9722a3daafe3b4186f6b6457e060405160405180910390a35050565b6000604051905090565b600080fd5b600080fd5b600073ffffffffffffffffffffffffffffffffffffffff82169050919050565b600062000288826200025b565b9050919050565b6200029a816200027b565b8114620002a657600080fd5b50565b600081519050620002ba816200028f565b92915050565b600080fd5b6000601f19601f8301169050919050565b7f4e487b7100000000000000000000000000000000000000000000000000000000600052604160045260246000fd5b6200031082620002c5565b810181811067ffffffffffffffff82111715620003325762000331620002d6565b5b80604052505050565b60006200034762000247565b905062000355828262000305565b919050565b600080fd5b600080fd5b600080fd5b600067ffffffffffffffff821115620003875762000386620002d6565b5b6200039282620002c5565b9050602081019050919050565b60005b83811015620003bf578082015181840152602081019050620003a2565b60008484015250505050565b6000620003e2620003dc8462000369565b6200033b565b90508281526020810184848401111562000401576200040062000364565b5b6200040e8482856200039f565b509392505050565b600082601f8301126200042e576200042d6200035f565b5b815162000440848260208601620003cb565b91505092915050565b6000819050919050565b6200045e8162000449565b81146200046a57600080fd5b50565b6000815190506200047e8162000453565b92915050565b600060c082840312156200049d576200049c620002c0565b5b620004a960c06200033b565b9050600082015167ffffffffffffffff811115620004cc57620004cb6200035a565b5b620004da8482850162000416565b600083015250602082015167ffffffffffffffff8111156200050157620005006200035a565b5b6200050f8482850162000416565b602083015250604082015167ffffffffffffffff8111156200053657620005356200035a565b5b620005448482850162000416565b604083015250606082015167ffffffffffffffff8111156200056b576200056a6200035a565b5b620005798482850162000416565b60608301525060806200058f848285016200046d565b60808301525060a0620005a5848285016200046d565b60a08301525092915050565b60008060008060808587031215620005ce57620005cd62000251565b5b6000620005de87828801620002a9565b9450506020620005f187828801620002a9565b93505060406200060487828801620002a9565b925050606085015167ffffffffffffffff81111562000628576200062762000256565b5b620006368782880162000484565b91505092959194509250565b600081519050919050565b7f4e487b7100000000000000000000000000000000000000000000000000000000600052602260045260246000fd5b600060028204905060018216806200069557607f821691505b602082108103620006ab57620006aa6200064d565b5b50919050565b60008190508160005260206000209050919050565b60006020601f8301049050919050565b600082821b905092915050565b600060088302620007157fffffffffffffffffffffffffffffffffffffffffffffffffffffffffffffffff82620006d6565b620007218683620006d6565b95508019841693508086168417925050509392505050565b6000819050919050565b6000620007646200075e620007588462000449565b62000739565b62000449565b9050919050565b6000819050919050565b620007808362000743565b620007986200078f826200076b565b848454620006e3565b825550505050565b600090565b620007af620007a0565b620007bc81848462000775565b505050565b5b81811015620007e457620007d8600082620007a5565b600181019050620007c2565b5050565b601f8211156200083357620007fd81620006b1565b6200080884620006c6565b8101602085101562000818578190505b620008306200082785620006c6565b830182620007c1565b50505b505050565b600082821c905092915050565b6000620008586000198460080262000838565b1980831691505092915050565b600062000873838362000845565b9150826002028217905092915050565b6200088e8262000642565b67ffffffffffffffff811115620008aa57620008a9620002d6565b5b620008b682546200067c565b620008c3828285620007e8565b600060209050601f831160018114620008fb5760008415620008e6578287015190505b620008f2858262000865565b86555062000962565b601f1984166200090b86620006b1565b60005b8281101562000935578489015182556001820191506020850194506020810190506200090e565b8683101562000955578489015162000951601f89168262000845565b8355505b6001600288020188555050505b505050505050565b60805160a05160c05160e051612f99620009b96000396000611518015260008181610de501526115ce0152600081816108960152610cb70152600081816105950152610a0d0152612f996000f3fe60806040526004361061014b5760003560e01c8063715018a6116100b6578063a22cb4651161006f578063a22cb46514610461578063b88d4fde1461048a578063bb244e40146104b3578063c87b56dd146104de578063e985e9c51461051b578063f2fde38b146105585761014b565b8063715018a6146103735780637f59230f1461038a5780638d2fe3e1146103b55780638da5cb5b146103e057806393dd64461461040b57806395d89b41146104365761014b565b806323b872dd1161010857806323b872dd146102745780633ccfd60b1461029d57806340c10f19146102b457806342842e0e146102d05780636352211e146102f957806370a08231146103365761014b565b806301ffc9a7146101505780630387da421461018d57806306fdde03146101b8578063081812fc146101e3578063095ea7b3146102205780630dccc9ad14610249575b600080fd5b34801561015c57600080fd5b5061017760048036038101906101729190612073565b610581565b60405161018491906120bb565b60405180910390f35b34801561019957600080fd5b506101a2610593565b6040516101af91906120ef565b60405180910390f35b3480156101c457600080fd5b506101cd6105b7565b6040516101da919061219a565b60405180910390f35b3480156101ef57600080fd5b5061020a600480360381019061020591906121e8565b610649565b6040516102179190612256565b60405180910390f35b34801561022c57600080fd5b506102476004803603810190610242919061229d565b61068f565b005b34801561025557600080fd5b5061025e6107a6565b60405161026b919061219a565b60405180910390f35b34801561028057600080fd5b5061029b600480360381019061029691906122dd565b610834565b005b3480156102a957600080fd5b506102b2610894565b005b6102ce60048036038101906102c9919061229d565b610972565b005b3480156102dc57600080fd5b506102f760048036038101906102f291906122dd565b610a86565b005b34801561030557600080fd5b50610320600480360381019061031b91906121e8565b610aa6565b60405161032d9190612256565b60405180910390f35b34801561034257600080fd5b5061035d60048036038101906103589190612330565b610b2c565b60405161036a91906120ef565b60405180910390f35b34801561037f57600080fd5b50610388610be3565b005b34801561039657600080fd5b5061039f610bf7565b6040516103ac91906120ef565b60405180910390f35b3480156103c157600080fd5b506103ca610bfd565b6040516103d7919061219a565b60405180910390f35b3480156103ec57600080fd5b506103f5610c8b565b6040516104029190612256565b60405180910390f35b34801561041757600080fd5b50610420610cb5565b60405161042d9190612256565b60405180910390f35b34801561044257600080fd5b5061044b610cd9565b604051610458919061219a565b60405180910390f35b34801561046d57600080fd5b5061048860048036038101906104839190612389565b610d6b565b005b34801561049657600080fd5b506104b160048036038101906104ac91906124fe565b610d81565b005b3480156104bf57600080fd5b506104c8610de3565b6040516104d59190612256565b60405180910390f35b3480156104ea57600080fd5b50610505600480360381019061050091906121e8565b610e07565b604051610512919061219a565b60405180910390f35b34801561052757600080fd5b50610542600480360381019061053d9190612581565b610e9b565b60405161054f91906120bb565b60405180910390f35b34801561056457600080fd5b5061057f600480360381019061057a9190612330565b610f2f565b005b600061058c82610fb2565b9050919050565b7f000000000000000000000000000000000000000000000000000000000000000081565b6060600080546105c6906125f0565b80601f01602080910402602001604051908101604052809291908181526020018280546105f2906125f0565b801561063f5780601f106106145761010080835404028352916020019161063f565b820191906000526020600020905b81548152906001019060200180831161062257829003601f168201915b5050505050905090565b600061065482611013565b6004600083815260200190815260200160002060009054906101000a900473ffffffffffffffffffffffffffffffffffffffff169050919050565b600061069a82610aa6565b90508073ffffffffffffffffffffffffffffffffffffffff168373ffffffffffffffffffffffffffffffffffffffff160361070a576040517f08c379a000000000000000000000000000000000000000000000000000000000815260040161070190612693565b60405180910390fd5b8073ffffffffffffffffffffffffffffffffffffffff1661072961105e565b73ffffffffffffffffffffffffffffffffffffffff16148061075857506107578161075261105e565b610e9b565b5b610797576040517f08c379a000000000000000000000000000000000000000000000000000000000815260040161078e90612725565b60405180910390fd5b6107a18383611066565b505050565b600a80546107b3906125f0565b80601f01602080910402602001604051908101604052809291908181526020018280546107df906125f0565b801561082c5780601f106108015761010080835404028352916020019161082c565b820191906000526020600020905b81548152906001019060200180831161080f57829003601f168201915b505050505081565b61084561083f61105e565b8261111f565b610884576040517f08c379a000000000000000000000000000000000000000000000000000000000815260040161087b906127b7565b60405180910390fd5b61088f8383836111b4565b505050565b7f000000000000000000000000000000000000000000000000000000000000000073ffffffffffffffffffffffffffffffffffffffff163373ffffffffffffffffffffffffffffffffffffffff1614610919576040517f5f81006400000000000000000000000000000000000000000000000000000000815260040160405180910390fd5b6109216114ad565b3373ffffffffffffffffffffffffffffffffffffffff166108fc479081150290604051600060405180830381858888f19350505050158015610967573d6000803e3d6000fd5b506109706114fc565b565b6000600c541415801561099a5750600c548161098e6009611506565b6109989190612806565b115b156109d1576040517f2dc526cd00000000000000000000000000000000000000000000000000000000815260040160405180910390fd5b60008111610a0b576040517fdeb4140200000000000000000000000000000000000000000000000000000000815260040160405180910390fd5b7f000000000000000000000000000000000000000000000000000000000000000081610a37919061283a565b341015610a70576040517f123db5b500000000000000000000000000000000000000000000000000000000815260040160405180910390fd5b610a78611514565b610a828282611638565b5050565b610aa183838360405180602001604052806000815250610d81565b505050565b600080610ab2836116cf565b9050600073ffffffffffffffffffffffffffffffffffffffff168173ffffffffffffffffffffffffffffffffffffffff1603610b23576040517f08c379a0000000000000000000000000000000000000000000000000000000008152600401610b1a906128c8565b60405180910390fd5b80915050919050565b60008073ffffffffffffffffffffffffffffffffffffffff168273ffffffffffffffffffffffffffffffffffffffff1603610b9c576040517f08c379a0000000000000000000000000000000000000000000000000000000008152600401610b939061295a565b60405180910390fd5b600360008373ffffffffffffffffffffffffffffffffffffffff1673ffffffffffffffffffffffffffffffffffffffff168152602001908152602001600020549050919050565b610beb61170c565b610bf5600061178a565b565b600c5481565b600b8054610c0a906125f0565b80601f0160208091040260200160405190810160405280929190818152602001828054610c36906125f0565b8015610c835780601f10610c5857610100808354040283529160200191610c83565b820191906000526020600020905b815481529060010190602001808311610c6657829003601f168201915b505050505081565b6000600760009054906101000a900473ffffffffffffffffffffffffffffffffffffffff16905090565b7f000000000000000000000000000000000000000000000000000000000000000081565b606060018054610ce8906125f0565b80601f0160208091040260200160405190810160405280929190818152602001828054610d14906125f0565b8015610d615780601f10610d3657610100808354040283529160200191610d61565b820191906000526020600020905b815481529060010190602001808311610d4457829003601f168201915b5050505050905090565b610d7d610d7661105e565b8383611850565b5050565b610d92610d8c61105e565b8361111f565b610dd1576040517f08c379a0000000000000000000000000000000000000000000000000000000008152600401610dc8906127b7565b60405180910390fd5b610ddd848484846119bc565b50505050565b7f000000000000000000000000000000000000000000000000000000000000000081565b6060600a8054610e16906125f0565b80601f0160208091040260200160405190810160405280929190818152602001828054610e42906125f0565b8015610e8f5780601f10610e6457610100808354040283529160200191610e8f565b820191906000526020600020905b815481529060010190602001808311610e7257829003601f168201915b50505050509050919050565b6000600560008473ffffffffffffffffffffffffffffffffffffffff1673ffffffffffffffffffffffffffffffffffffffff16815260200190815260200160002060008373ffffffffffffffffffffffffffffffffffffffff1673ffffffffffffffffffffffffffffffffffffffff16815260200190815260200160002060009054906101000a900460ff16905092915050565b610f3761170c565b600073ffffffffffffffffffffffffffffffffffffffff168173ffffffffffffffffffffffffffffffffffffffff1603610fa6576040517f08c379a0000000000000000000000000000000000000000000000000000000008152600401610f9d906129ec565b60405180910390fd5b610faf8161178a565b50565b6000634906490660e01b7bffffffffffffffffffffffffffffffffffffffffffffffffffffffff1916827bffffffffffffffffffffffffffffffffffffffffffffffffffffffff1916148061100c575061100b82611a18565b5b9050919050565b61101c81611afa565b61105b576040517f08c379a0000000000000000000000000000000000000000000000000000000008152600401611052906128c8565b60405180910390fd5b50565b600033905090565b816004600083815260200190815260200160002060006101000a81548173ffffffffffffffffffffffffffffffffffffffff021916908373ffffffffffffffffffffffffffffffffffffffff160217905550808273ffffffffffffffffffffffffffffffffffffffff166110d983610aa6565b73ffffffffffffffffffffffffffffffffffffffff167f8c5be1e5ebec7d5bd14f71427d1e84f3dd0314c0f7b2291e5b200ac8c7c3b92560405160405180910390a45050565b60008061112b83610aa6565b90508073ffffffffffffffffffffffffffffffffffffffff168473ffffffffffffffffffffffffffffffffffffffff16148061116d575061116c8185610e9b565b5b806111ab57508373ffffffffffffffffffffffffffffffffffffffff1661119384610649565b73ffffffffffffffffffffffffffffffffffffffff16145b91505092915050565b8273ffffffffffffffffffffffffffffffffffffffff166111d482610aa6565b73ffffffffffffffffffffffffffffffffffffffff161461122a576040517f08c379a000000000000000000000000000000000000000000000000000000000815260040161122190612a7e565b60405180910390fd5b600073ffffffffffffffffffffffffffffffffffffffff168273ffffffffffffffffffffffffffffffffffffffff1603611299576040517f08c379a000000000000000000000000000000000000000000000000000000000815260040161129090612b10565b60405180910390fd5b6112a68383836001611b3b565b8273ffffffffffffffffffffffffffffffffffffffff166112c682610aa6565b73ffffffffffffffffffffffffffffffffffffffff161461131c576040517f08c379a000000000000000000000000000000000000000000000000000000000815260040161131390612a7e565b60405180910390fd5b6004600082815260200190815260200160002060006101000a81549073ffffffffffffffffffffffffffffffffffffffff02191690556001600360008573ffffffffffffffffffffffffffffffffffffffff1673ffffffffffffffffffffffffffffffffffffffff168152602001908152602001600020600082825403925050819055506001600360008473ffffffffffffffffffffffffffffffffffffffff1673ffffffffffffffffffffffffffffffffffffffff16815260200190815260200160002060008282540192505081905550816002600083815260200190815260200160002060006101000a81548173ffffffffffffffffffffffffffffffffffffffff021916908373ffffffffffffffffffffffffffffffffffffffff160217905550808273ffffffffffffffffffffffffffffffffffffffff168473ffffffffffffffffffffffffffffffffffffffff167fddf252ad1be2c89b69c2b068fc378daa952ba7f163c4a11628f55a4df523b3ef60405160405180910390a46114a88383836001611b41565b505050565b6002600854036114f2576040517f08c379a00000000000000000000000000000000000000000000000000000000081526004016114e990612b7c565b60405180910390fd5b6002600881905550565b6001600881905550565b600081600001549050919050565b60007f000000000000000000000000000000000000000000000000000000000000000073ffffffffffffffffffffffffffffffffffffffff16637a3a27ea6040518163ffffffff1660e01b8152600401602060405180830381865afa158015611581573d6000803e3d6000fd5b505050506040513d601f19601f820116820180604052508101906115a59190612bb1565b90506000606482346115b7919061283a565b6115c19190612c0d565b90506000811115611634577f000000000000000000000000000000000000000000000000000000000000000073ffffffffffffffffffffffffffffffffffffffff166108fc829081150290604051600060405180830381858888f19350505050158015611632573d6000803e3d6000fd5b505b5050565b60005b818110156116ca5761164d6009611b47565b60006116596009611506565b90506116658482611b5d565b808473ffffffffffffffffffffffffffffffffffffffff167fe7cd4ce7f2a465edc730269a1305e8a48bad821e8fb7e152ec413829c01a53c46116a784610e07565b6040516116b4919061219a565b60405180910390a350808060010191505061163b565b505050565b60006002600083815260200190815260200160002060009054906101000a900473ffffffffffffffffffffffffffffffffffffffff169050919050565b61171461105e565b73ffffffffffffffffffffffffffffffffffffffff16611732610c8b565b73ffffffffffffffffffffffffffffffffffffffff1614611788576040517f08c379a000000000000000000000000000000000000000000000000000000000815260040161177f90612c8a565b60405180910390fd5b565b6000600760009054906101000a900473ffffffffffffffffffffffffffffffffffffffff16905081600760006101000a81548173ffffffffffffffffffffffffffffffffffffffff021916908373ffffffffffffffffffffffffffffffffffffffff1602179055508173ffffffffffffffffffffffffffffffffffffffff168173ffffffffffffffffffffffffffffffffffffffff167f8be0079c531659141344cd1fd0a4f28419497f9722a3daafe3b4186f6b6457e060405160405180910390a35050565b8173ffffffffffffffffffffffffffffffffffffffff168373ffffffffffffffffffffffffffffffffffffffff16036118be576040517f08c379a00000000000000000000000000000000000000000000000000000000081526004016118b590612cf6565b60405180910390fd5b80600560008573ffffffffffffffffffffffffffffffffffffffff1673ffffffffffffffffffffffffffffffffffffffff16815260200190815260200160002060008473ffffffffffffffffffffffffffffffffffffffff1673ffffffffffffffffffffffffffffffffffffffff16815260200190815260200160002060006101000a81548160ff0219169083151502179055508173ffffffffffffffffffffffffffffffffffffffff168373ffffffffffffffffffffffffffffffffffffffff167f17307eab39ab6107e8899845ad3d59bd9653f200f220920489ca2b5937696c31836040516119af91906120bb565b60405180910390a3505050565b6119c78484846111b4565b6119d384848484611b7b565b611a12576040517f08c379a0000000000000000000000000000000000000000000000000000000008152600401611a0990612d88565b60405180910390fd5b50505050565b60007f80ac58cd000000000000000000000000000000000000000000000000000000007bffffffffffffffffffffffffffffffffffffffffffffffffffffffff1916827bffffffffffffffffffffffffffffffffffffffffffffffffffffffff19161480611ae357507f5b5e139f000000000000000000000000000000000000000000000000000000007bffffffffffffffffffffffffffffffffffffffffffffffffffffffff1916827bffffffffffffffffffffffffffffffffffffffffffffffffffffffff1916145b80611af35750611af282611d02565b5b9050919050565b60008073ffffffffffffffffffffffffffffffffffffffff16611b1c836116cf565b73ffffffffffffffffffffffffffffffffffffffff1614159050919050565b50505050565b50505050565b6001816000016000828254019250508190555050565b611b77828260405180602001604052806000815250611d6c565b5050565b6000611b9c8473ffffffffffffffffffffffffffffffffffffffff16611dc7565b15611cf5578373ffffffffffffffffffffffffffffffffffffffff1663150b7a02611bc561105e565b8786866040518563ffffffff1660e01b8152600401611be79493929190612dfd565b6020604051808303816000875af1925050508015611c2357506040513d601f19601f82011682018060405250810190611c209190612e5e565b60015b611ca5573d8060008114611c53576040519150601f19603f3d011682016040523d82523d6000602084013e611c58565b606091505b506000815103611c9d576040517f08c379a0000000000000000000000000000000000000000000000000000000008152600401611c9490612d88565b60405180910390fd5b805181602001fd5b63150b7a0260e01b7bffffffffffffffffffffffffffffffffffffffffffffffffffffffff1916817bffffffffffffffffffffffffffffffffffffffffffffffffffffffff191614915050611cfa565b600190505b949350505050565b60007f01ffc9a7000000000000000000000000000000000000000000000000000000007bffffffffffffffffffffffffffffffffffffffffffffffffffffffff1916827bffffffffffffffffffffffffffffffffffffffffffffffffffffffff1916149050919050565b611d768383611dea565b611d836000848484611b7b565b611dc2576040517f08c379a0000000000000000000000000000000000000000000000000000000008152600401611db990612d88565b60405180910390fd5b505050565b6000808273ffffffffffffffffffffffffffffffffffffffff163b119050919050565b600073ffffffffffffffffffffffffffffffffffffffff168273ffffffffffffffffffffffffffffffffffffffff1603611e59576040517f08c379a0000000000000000000000000000000000000000000000000000000008152600401611e5090612ed7565b60405180910390fd5b611e6281611afa565b15611ea2576040517f08c379a0000000000000000000000000000000000000000000000000000000008152600401611e9990612f43565b60405180910390fd5b611eb0600083836001611b3b565b611eb981611afa565b15611ef9576040517f08c379a0000000000000000000000000000000000000000000000000000000008152600401611ef090612f43565b60405180910390fd5b6001600360008473ffffffffffffffffffffffffffffffffffffffff1673ffffffffffffffffffffffffffffffffffffffff16815260200190815260200160002060008282540192505081905550816002600083815260200190815260200160002060006101000a81548173ffffffffffffffffffffffffffffffffffffffff021916908373ffffffffffffffffffffffffffffffffffffffff160217905550808273ffffffffffffffffffffffffffffffffffffffff16600073ffffffffffffffffffffffffffffffffffffffff167fddf252ad1be2c89b69c2b068fc378daa952ba7f163c4a11628f55a4df523b3ef60405160405180910390a4612003600083836001611b41565b5050565b6000604051905090565b600080fd5b600080fd5b60007fffffffff0000000000000000000000000000000000000000000000000000000082169050919050565b6120508161201b565b811461205b57600080fd5b50565b60008135905061206d81612047565b92915050565b60006020828403121561208957612088612011565b5b60006120978482850161205e565b91505092915050565b60008115159050919050565b6120b5816120a0565b82525050565b60006020820190506120d060008301846120ac565b92915050565b6000819050919050565b6120e9816120d6565b82525050565b600060208201905061210460008301846120e0565b92915050565b600081519050919050565b600082825260208201905092915050565b60005b83811015612144578082015181840152602081019050612129565b60008484015250505050565b6000601f19601f8301169050919050565b600061216c8261210a565b6121768185612115565b9350612186818560208601612126565b61218f81612150565b840191505092915050565b600060208201905081810360008301526121b48184612161565b905092915050565b6121c5816120d6565b81146121d057600080fd5b50565b6000813590506121e2816121bc565b92915050565b6000602082840312156121fe576121fd612011565b5b600061220c848285016121d3565b91505092915050565b600073ffffffffffffffffffffffffffffffffffffffff82169050919050565b600061224082612215565b9050919050565b61225081612235565b82525050565b600060208201905061226b6000830184612247565b92915050565b61227a81612235565b811461228557600080fd5b50565b60008135905061229781612271565b92915050565b600080604083850312156122b4576122b3612011565b5b60006122c285828601612288565b92505060206122d3858286016121d3565b9150509250929050565b6000806000606084860312156122f6576122f5612011565b5b600061230486828701612288565b935050602061231586828701612288565b9250506040612326868287016121d3565b9150509250925092565b60006020828403121561234657612345612011565b5b600061235484828501612288565b91505092915050565b612366816120a0565b811461237157600080fd5b50565b6000813590506123838161235d565b92915050565b600080604083850312156123a05761239f612011565b5b60006123ae85828601612288565b92505060206123bf85828601612374565b9150509250929050565b600080fd5b600080fd5b7f4e487b7100000000000000000000000000000000000000000000000000000000600052604160045260246000fd5b61240b82612150565b810181811067ffffffffffffffff8211171561242a576124296123d3565b5b80604052505050565b600061243d612007565b90506124498282612402565b919050565b600067ffffffffffffffff821115612469576124686123d3565b5b61247282612150565b9050602081019050919050565b82818337600083830152505050565b60006124a161249c8461244e565b612433565b9050828152602081018484840111156124bd576124bc6123ce565b5b6124c884828561247f565b509392505050565b600082601f8301126124e5576124e46123c9565b5b81356124f584826020860161248e565b91505092915050565b6000806000806080858703121561251857612517612011565b5b600061252687828801612288565b945050602061253787828801612288565b9350506040612548878288016121d3565b925050606085013567ffffffffffffffff81111561256957612568612016565b5b612575878288016124d0565b91505092959194509250565b6000806040838503121561259857612597612011565b5b60006125a685828601612288565b92505060206125b785828601612288565b9150509250929050565b7f4e487b7100000000000000000000000000000000000000000000000000000000600052602260045260246000fd5b6000600282049050600182168061260857607f821691505b60208210810361261b5761261a6125c1565b5b50919050565b7f4552433732313a20617070726f76616c20746f2063757272656e74206f776e6560008201527f7200000000000000000000000000000000000000000000000000000000000000602082015250565b600061267d602183612115565b915061268882612621565b604082019050919050565b600060208201905081810360008301526126ac81612670565b9050919050565b7f4552433732313a20617070726f76652063616c6c6572206973206e6f7420746f60008201527f6b656e206f776e6572206f7220617070726f76656420666f7220616c6c000000602082015250565b600061270f603d83612115565b915061271a826126b3565b604082019050919050565b6000602082019050818103600083015261273e81612702565b9050919050565b7f4552433732313a2063616c6c6572206973206e6f7420746f6b656e206f776e6560008201527f72206f7220617070726f76656400000000000000000000000000000000000000602082015250565b60006127a1602d83612115565b91506127ac82612745565b604082019050919050565b600060208201905081810360008301526127d081612794565b9050919050565b7f4e487b7100000000000000000000000000000000000000000000000000000000600052601160045260246000fd5b6000612811826120d6565b915061281c836120d6565b9250828201905080821115612834576128336127d7565b5b92915050565b6000612845826120d6565b9150612850836120d6565b925082820261285e816120d6565b91508282048414831517612875576128746127d7565b5b5092915050565b7f4552433732313a20696e76616c696420746f6b656e2049440000000000000000600082015250565b60006128b2601883612115565b91506128bd8261287c565b602082019050919050565b600060208201905081810360008301526128e1816128a5565b9050919050565b7f4552433732313a2061646472657373207a65726f206973206e6f74206120766160008201527f6c6964206f776e65720000000000000000000000000000000000000000000000602082015250565b6000612944602983612115565b915061294f826128e8565b604082019050919050565b6000602082019050818103600083015261297381612937565b9050919050565b7f4f776e61626c653a206e6577206f776e657220697320746865207a65726f206160008201527f6464726573730000000000000000000000000000000000000000000000000000602082015250565b60006129d6602683612115565b91506129e18261297a565b604082019050919050565b60006020820190508181036000830152612a05816129c9565b9050919050565b7f4552433732313a207472616e736665722066726f6d20696e636f72726563742060008201527f6f776e6572000000000000000000000000000000000000000000000000000000602082015250565b6000612a68602583612115565b9150612a7382612a0c565b604082019050919050565b60006020820190508181036000830152612a9781612a5b565b9050919050565b7f4552433732313a207472616e7366657220746f20746865207a65726f2061646460008201527f7265737300000000000000000000000000000000000000000000000000000000602082015250565b6000612afa602483612115565b9150612b0582612a9e565b604082019050919050565b60006020820190508181036000830152612b2981612aed565b9050919050565b7f5265656e7472616e637947756172643a207265656e7472616e742063616c6c00600082015250565b6000612b66601f83612115565b9150612b7182612b30565b602082019050919050565b60006020820190508181036000830152612b9581612b59565b9050919050565b600081519050612bab816121bc565b92915050565b600060208284031215612bc757612bc6612011565b5b6000612bd584828501612b9c565b91505092915050565b7f4e487b7100000000000000000000000000000000000000000000000000000000600052601260045260246000fd5b6000612c18826120d6565b9150612c23836120d6565b925082612c3357612c32612bde565b5b828204905092915050565b7f4f776e61626c653a2063616c6c6572206973206e6f7420746865206f776e6572600082015250565b6000612c74602083612115565b9150612c7f82612c3e565b602082019050919050565b60006020820190508181036000830152612ca381612c67565b9050919050565b7f4552433732313a20617070726f766520746f2063616c6c657200000000000000600082015250565b6000612ce0601983612115565b9150612ceb82612caa565b602082019050919050565b60006020820190508181036000830152612d0f81612cd3565b9050919050565b7f4552433732313a207472616e7366657220746f206e6f6e20455243373231526560008201527f63656976657220696d706c656d656e7465720000000000000000000000000000602082015250565b6000612d72603283612115565b9150612d7d82612d16565b604082019050919050565b60006020820190508181036000830152612da181612d65565b9050919050565b600081519050919050565b600082825260208201905092915050565b6000612dcf82612da8565b612dd98185612db3565b9350612de9818560208601612126565b612df281612150565b840191505092915050565b6000608082019050612e126000830187612247565b612e1f6020830186612247565b612e2c60408301856120e0565b8181036060830152612e3e8184612dc4565b905095945050505050565b600081519050612e5881612047565b92915050565b600060208284031215612e7457612e73612011565b5b6000612e8284828501612e49565b91505092915050565b7f4552433732313a206d696e7420746f20746865207a65726f2061646472657373600082015250565b6000612ec1602083612115565b9150612ecc82612e8b565b602082019050919050565b60006020820190508181036000830152612ef081612eb4565b9050919050565b7f4552433732313a20746f6b656e20616c7265616479206d696e74656400000000600082015250565b6000612f2d601c83612115565b9150612f3882612ef7565b602082019050919050565b60006020820190508181036000830152612f5c81612f20565b905091905056fea2646970667358221220f7085d4359570f4bcac67c25165cbb3f34e534fd4fd0f5362210c023acc3295464736f6c63430008180033a2646970667358221220f7d21e60da48d2b964b7a82d73b778b04a23d702248183887bd1f2b3304e065464736f6c63430008180033",
  "linkReferences": {},
  "deployedLinkReferences": {}
}