{
  "_format": "hh-sol-artifact-1",
  "contractName": "FeeManager",
  "sourceName": "contracts/FeeManager.sol",
  "abi": [
    {
      "inputs": [
        {
          "internalType": "uint256",
          "name": "_initialFeePercentage",
          "type": "uint256"
        }
      ],
      "stateMutability": "nonpayable",
      "type": "constructor"
    },
    {
      "inputs": [],
      "name": "FeeManager__OnlyOwner",
      "type": "error"
    },
    {
      "inputs": [],
      "name": "getPlatformFeePercentage",
      "outputs": [
        {
          "internalType": "uint256",
          "name": "",
          "type": "uint256"
        }
      ],
      "stateMutability": "view",
      "type": "function"
    },
    {
      "inputs": [
        {
          "internalType": "uint256",
          "name": "_newPlatformFeePercent",
          "type": "uint256"
        }
      ],
      "name": "updatePlatformFee",
      "outputs": [],
      "stateMutability": "nonpayable",
      "type": "function"
    }
  ],
  "bytecode": "0x60a060405234801561001057600080fd5b506040516102ca3803806102ca833981810160405281019061003291906100ae565b806000819055503373ffffffffffffffffffffffffffffffffffffffff1660808173ffffffffffffffffffffffffffffffffffffffff1681525050506100db565b600080fd5b6000819050919050565b61008b81610078565b811461009657600080fd5b50565b6000815190506100a881610082565b92915050565b6000602082840312156100c4576100c3610073565b5b60006100d284828501610099565b91505092915050565b6080516101d56100f56000396000608001526101d56000f3fe608060405234801561001057600080fd5b50600436106100365760003560e01c80637a3a27ea1461003b578063aa0b598814610059575b600080fd5b610043610075565b6040516100509190610126565b60405180910390f35b610073600480360381019061006e9190610172565b61007e565b005b60008054905090565b7f000000000000000000000000000000000000000000000000000000000000000073ffffffffffffffffffffffffffffffffffffffff163373ffffffffffffffffffffffffffffffffffffffff1614610103576040517fb6afab3d00000000000000000000000000000000000000000000000000000000815260040160405180910390fd5b8060008190555050565b6000819050919050565b6101208161010d565b82525050565b600060208201905061013b6000830184610117565b92915050565b600080fd5b61014f8161010d565b811461015a57600080fd5b50565b60008135905061016c81610146565b92915050565b60006020828403121561018857610187610141565b5b60006101968482850161015d565b9150509291505056fea2646970667358221220aef65833cec156050a6468279100ef8e8a951c2f359e69e104e47034c2d7c65d64736f6c63430008180033",
  "linkReferences": {},
  "deployedLinkReferences": {}
}