{
  "_format": "hh-sol-artifact-1",
  "contractName": "DBeatsPlatformWallet",
  "sourceName": "contracts/PlatformWallet.sol",
  "abi": [
    {
      "inputs": [
        {
          "internalType": "address[]",
          "name": "_owners",
          "type": "address[]"
        },
        {
          "internalType": "uint256",
          "name": "_requiredConfirmations",
          "type": "uint256"
        }
      ],
      "stateMutability": "nonpayable",
      "type": "constructor"
    },
    {
      "inputs": [],
      "name": "confirm",
      "outputs": [],
      "stateMutability": "nonpayable",
      "type": "function"
    },
    {
      "inputs": [],
      "name": "confirmations",
      "outputs": [
        {
          "internalType": "uint256",
          "name": "",
          "type": "uint256"
        }
      ],
      "stateMutability": "view",
      "type": "function"
    },
    {
      "inputs": [],
      "name": "currentRound",
      "outputs": [
        {
          "internalType": "uint256",
          "name": "",
          "type": "uint256"
        }
      ],
      "stateMutability": "view",
      "type": "function"
    },
    {
      "inputs": [
        {
          "internalType": "address",
          "name": "",
          "type": "address"
        }
      ],
      "name": "isOwner",
      "outputs": [
        {
          "internalType": "bool",
          "name": "",
          "type": "bool"
        }
      ],
      "stateMutability": "view",
      "type": "function"
    },
    {
      "inputs": [
        {
          "internalType": "address",
          "name": "",
          "type": "address"
        }
      ],
      "name": "lastConfirmedRound",
      "outputs": [
        {
          "internalType": "uint256",
          "name": "",
          "type": "uint256"
        }
      ],
      "stateMutability": "view",
      "type": "function"
    },
    {
      "inputs": [
        {
          "internalType": "uint256",
          "name": "",
          "type": "uint256"
        }
      ],
      "name": "owners",
      "outputs": [
        {
          "internalType": "address",
          "name": "",
          "type": "address"
        }
      ],
      "stateMutability": "view",
      "type": "function"
    },
    {
      "inputs": [],
      "name": "requiredConfirmations",
      "outputs": [
        {
          "internalType": "uint256",
          "name": "",
          "type": "uint256"
        }
      ],
      "stateMutability": "view",
      "type": "function"
    },
    {
      "stateMutability": "payable",
      "type": "receive"
    }
  ],
  "bytecode": "0x60806040523480156200001157600080fd5b506040516200130b3803806200130b83398181016040528101906200003791906200054f565b6001600081905550600082511162000086576040517f08c379a00000000000000000000000000000000000000000000000000000000081526004016200007d9062000616565b60405180910390fd5b60008111620000cc576040517f08c379a0000000000000000000000000000000000000000000000000000000008152600401620000c390620006ae565b60405180910390fd5b815181111562000113576040517f08c379a00000000000000000000000000000000000000000000000000000000081526004016200010a9062000720565b60405180910390fd5b60005b82518110156200030e57600083828151811062000138576200013762000742565b5b60200260200101519050600073ffffffffffffffffffffffffffffffffffffffff168173ffffffffffffffffffffffffffffffffffffffff1603620001b4576040517f08c379a0000000000000000000000000000000000000000000000000000000008152600401620001ab90620007c1565b60405180910390fd5b600260008273ffffffffffffffffffffffffffffffffffffffff1673ffffffffffffffffffffffffffffffffffffffff16815260200190815260200160002060009054906101000a900460ff161562000244576040517f08c379a00000000000000000000000000000000000000000000000000000000081526004016200023b9062000833565b60405180910390fd5b6001600260008373ffffffffffffffffffffffffffffffffffffffff1673ffffffffffffffffffffffffffffffffffffffff16815260200190815260200160002060006101000a81548160ff0219169083151502179055506001819080600181540180825580915050600190039060005260206000200160009091909190916101000a81548173ffffffffffffffffffffffffffffffffffffffff021916908373ffffffffffffffffffffffffffffffffffffffff16021790555050808060010191505062000116565b50806005819055506001600681905550505062000855565b6000604051905090565b600080fd5b600080fd5b600080fd5b6000601f19601f8301169050919050565b7f4e487b7100000000000000000000000000000000000000000000000000000000600052604160045260246000fd5b6200038a826200033f565b810181811067ffffffffffffffff82111715620003ac57620003ab62000350565b5b80604052505050565b6000620003c162000326565b9050620003cf82826200037f565b919050565b600067ffffffffffffffff821115620003f257620003f162000350565b5b602082029050602081019050919050565b600080fd5b600073ffffffffffffffffffffffffffffffffffffffff82169050919050565b6000620004358262000408565b9050919050565b620004478162000428565b81146200045357600080fd5b50565b60008151905062000467816200043c565b92915050565b6000620004846200047e84620003d4565b620003b5565b90508083825260208201905060208402830185811115620004aa57620004a962000403565b5b835b81811015620004d75780620004c2888262000456565b845260208401935050602081019050620004ac565b5050509392505050565b600082601f830112620004f957620004f86200033a565b5b81516200050b8482602086016200046d565b91505092915050565b6000819050919050565b620005298162000514565b81146200053557600080fd5b50565b60008151905062000549816200051e565b92915050565b6000806040838503121562000569576200056862000330565b5b600083015167ffffffffffffffff8111156200058a576200058962000335565b5b6200059885828601620004e1565b9250506020620005ab8582860162000538565b9150509250929050565b600082825260208201905092915050565b7f4f776e6572732072657175697265640000000000000000000000000000000000600082015250565b6000620005fe600f83620005b5565b91506200060b82620005c6565b602082019050919050565b600060208201905081810360008301526200063181620005ef565b9050919050565b7f526571756972656420636f6e6669726d6174696f6e73206d757374206265207060008201527f6f73697469766500000000000000000000000000000000000000000000000000602082015250565b600062000696602783620005b5565b9150620006a38262000638565b604082019050919050565b60006020820190508181036000830152620006c98162000687565b9050919050565b7f496e76616c696420726571756972656420636f6e6669726d6174696f6e730000600082015250565b600062000708601e83620005b5565b91506200071582620006d0565b602082019050919050565b600060208201905081810360008301526200073b81620006f9565b9050919050565b7f4e487b7100000000000000000000000000000000000000000000000000000000600052603260045260246000fd5b7f496e76616c6964206f776e657200000000000000000000000000000000000000600082015250565b6000620007a9600d83620005b5565b9150620007b68262000771565b602082019050919050565b60006020820190508181036000830152620007dc816200079a565b9050919050565b7f4f776e6572206e6f7420756e6971756500000000000000000000000000000000600082015250565b60006200081b601083620005b5565b91506200082882620007e3565b602082019050919050565b600060208201905081810360008301526200084e816200080c565b9050919050565b610aa680620008656000396000f3fe6080604052600436106100745760003560e01c80637022b58e1161004e5780637022b58e1461013757806382e717f71461014e5780638a19c8bc146101795780639cf5d607146101a45761007b565b8063025e7c27146100805780632f54bf6e146100bd57806353f19773146100fa5761007b565b3661007b57005b600080fd5b34801561008c57600080fd5b506100a760048036038101906100a291906105fb565b6101cf565b6040516100b49190610669565b60405180910390f35b3480156100c957600080fd5b506100e460048036038101906100df91906106b0565b61020e565b6040516100f191906106f8565b60405180910390f35b34801561010657600080fd5b50610121600480360381019061011c91906106b0565b61022e565b60405161012e9190610722565b60405180910390f35b34801561014357600080fd5b5061014c610246565b005b34801561015a57600080fd5b506101636103c9565b6040516101709190610722565b60405180910390f35b34801561018557600080fd5b5061018e6103cf565b60405161019b9190610722565b60405180910390f35b3480156101b057600080fd5b506101b96103d5565b6040516101c69190610722565b60405180910390f35b600181815481106101df57600080fd5b906000526020600020016000915054906101000a900473ffffffffffffffffffffffffffffffffffffffff1681565b60026020528060005260406000206000915054906101000a900460ff1681565b60036020528060005260406000206000915090505481565b600260003373ffffffffffffffffffffffffffffffffffffffff1673ffffffffffffffffffffffffffffffffffffffff16815260200190815260200160002060009054906101000a900460ff166102d2576040517f08c379a00000000000000000000000000000000000000000000000000000000081526004016102c99061079a565b60405180910390fd5b600654600360003373ffffffffffffffffffffffffffffffffffffffff1673ffffffffffffffffffffffffffffffffffffffff1681526020019081526020016000205410610355576040517f08c379a000000000000000000000000000000000000000000000000000000000815260040161034c90610806565b60405180910390fd5b600654600360003373ffffffffffffffffffffffffffffffffffffffff1673ffffffffffffffffffffffffffffffffffffffff16815260200190815260200160002081905550600460008154809291906103ae90610855565b9190505550600554600454106103c7576103c66103db565b5b565b60055481565b60065481565b60045481565b6103e3610545565b600047905060006001805490509050600060055490506000831161043c576040517f08c379a0000000000000000000000000000000000000000000000000000000008152600401610433906108e9565b60405180910390fd5b806004541015610481576040517f08c379a000000000000000000000000000000000000000000000000000000000815260040161047890610955565b60405180910390fd5b6000828461048f91906109a4565b905060005b8381101561052e57600181815481106104b0576104af6109d5565b5b9060005260206000200160009054906101000a900473ffffffffffffffffffffffffffffffffffffffff1673ffffffffffffffffffffffffffffffffffffffff166108fc839081150290604051600060405180830381858888f19350505050158015610520573d6000803e3d6000fd5b508080600101915050610494565b50610537610594565b505050506105436105b6565b565b60026000540361058a576040517f08c379a000000000000000000000000000000000000000000000000000000000815260040161058190610a50565b60405180910390fd5b6002600081905550565b6000600481905550600660008154809291906105af90610855565b9190505550565b6001600081905550565b600080fd5b6000819050919050565b6105d8816105c5565b81146105e357600080fd5b50565b6000813590506105f5816105cf565b92915050565b600060208284031215610611576106106105c0565b5b600061061f848285016105e6565b91505092915050565b600073ffffffffffffffffffffffffffffffffffffffff82169050919050565b600061065382610628565b9050919050565b61066381610648565b82525050565b600060208201905061067e600083018461065a565b92915050565b61068d81610648565b811461069857600080fd5b50565b6000813590506106aa81610684565b92915050565b6000602082840312156106c6576106c56105c0565b5b60006106d48482850161069b565b91505092915050565b60008115159050919050565b6106f2816106dd565b82525050565b600060208201905061070d60008301846106e9565b92915050565b61071c816105c5565b82525050565b60006020820190506107376000830184610713565b92915050565b600082825260208201905092915050565b7f4e6f7420616e206f776e65720000000000000000000000000000000000000000600082015250565b6000610784600c8361073d565b915061078f8261074e565b602082019050919050565b600060208201905081810360008301526107b381610777565b9050919050565b7f596f75206861766520616c726561647920636f6e6669726d6564000000000000600082015250565b60006107f0601a8361073d565b91506107fb826107ba565b602082019050919050565b6000602082019050818103600083015261081f816107e3565b9050919050565b7f4e487b7100000000000000000000000000000000000000000000000000000000600052601160045260246000fd5b6000610860826105c5565b91507fffffffffffffffffffffffffffffffffffffffffffffffffffffffffffffffff820361089257610891610826565b5b600182019050919050565b7f4e6f2062616c616e636520746f20776974686472617700000000000000000000600082015250565b60006108d360168361073d565b91506108de8261089d565b602082019050919050565b60006020820190508181036000830152610902816108c6565b9050919050565b7f4e6f7420656e6f75676820636f6e6669726d6174696f6e730000000000000000600082015250565b600061093f60188361073d565b915061094a82610909565b602082019050919050565b6000602082019050818103600083015261096e81610932565b9050919050565b7f4e487b7100000000000000000000000000000000000000000000000000000000600052601260045260246000fd5b60006109af826105c5565b91506109ba836105c5565b9250826109ca576109c9610975565b5b828204905092915050565b7f4e487b7100000000000000000000000000000000000000000000000000000000600052603260045260246000fd5b7f5265656e7472616e637947756172643a207265656e7472616e742063616c6c00600082015250565b6000610a3a601f8361073d565b9150610a4582610a04565b602082019050919050565b60006020820190508181036000830152610a6981610a2d565b905091905056fea2646970667358221220c4c8ec087e8ad169dd871008a1fc5cff7dea39e5973f3f294b41a2b2bc657ace64736f6c63430008180033",
  "linkReferences": {},
  "deployedLinkReferences": {}
}